:1000000000308A0092280000831606108312061022
:10001000831686108312861083160611831206112A
:100020008316861183128611080021142108831675
:10003000870000308312071C0130A400A11421089E
:100040008316870000308312871C0130A404A11599
:1000500021088316870000308312871D0130240495
:1000600003193B28831608118312081531300C1E22
:10007000372899004328831608118312081130305D
:100080000C1E402899008A110A12BC2883160610FB
:1000900083120614831686108312861083160611A7
:1000A0008312061583168611831286118A110A128D
:1000B000BF2883160610831206108316861083123B
:1000C0008614831606118312061183168611831275
:1000D00086158A110A12C728831606108312061481
:1000E000831686108312861083160611831206115A
:1000F00083168611831286158A110A12CF28831659
:100100000611831206158316861183128611831633
:1001100006108312061083168610831286148A1125
:100120000A12D72803081F39830083160317871183
:10013000193003139900A63098009030831298006C
:10014000FF30A100A201831603170908C0398900F6
:1001500003131F129F1200300317880083128701B8
:10016000880189018313031304208C1EB5281A0803
:10017000A0003030A0021528200BC22846280130EC
:10018000A200DD282008023C031DCA28592801309E
:10019000A200DD282008033C031DD2286C28013072
:1001A000A200DD282008043C031DDA287F28013046
:0E01B000A200DD2804200130A200B528630063
:04400E00E12CFF3F63
:00000001FF
;PIC16F887
;CRC=0B09  CREATED="27-Jun-23 21:04"
