:1000000000308A001B28000023308400831300087E
:10001000031918280130F800F701F70B0D28F80B29
:100020000C284A30F700F70B13281628800B0A28F3
:100030008A110A12552803081F39830083160317F3
:100040008711193003139900A6309800903083125D
:100050009800831603170908C039890003131F127B
:100060009F120030031788008312870188018901DD
:1000700083130313A001A10148300C1E3D289900F1
:1000800065300C1E412899006C300C1E45289900E3
:100090006C300C1E492899006F300C1E4D289900B9
:1000A0000630A200FA30A3000428A20B52283C28F4
:0200B0006300EB
:04400E00E12CFF3F63
:00000001FF
;PIC16F887
;CRC=DBF2  CREATED="13-Jun-23 23:49"
