:1000000002308A009E2A00000A108A100A11820714
:1000100042346C347534653474346F346F347434F2
:100020006834203443346134723400340A108A1046
:100030000A1182075034493443343134363446345B
:100040003834383437340034573084008313000890
:10005000031938280130F800F701F70B2D28F80BA9
:100060002C284A30F700F70B33283628800B2A2833
:1000700008005A080739F7005A0CF800F80CF80C79
:100080001F30F80578085C07840083135D18831718
:10009000F801F80AF70A4D28F80DF70B4C28DB0891
:1000A00003195528780880045828F809780880052D
:1000B0000800590B6A285808DA000130DB00DD011E
:1000C000DC0139205808DA00DB01DD018030DC007A
:1000D000392077285808DA00DB01DD01DC013920FE
:1000E0005808DA00DB01DD018030DC00392008002F
:1000F0004130D800D90159204230D800D9015920C7
:100100004030D800D9015920F701D61B7714770861
:100110000139D7004430D8005708D9005920560E6D
:10012000F700F70CF70C0330F70577080139D70013
:100130004530D8005708D9005920560EF700F70C63
:100140000730F70577080139D7004630D80057083F
:10015000D9005920560EF7000F30F70577080139FE
:10016000D7004730D8005708D90059204030D80070
:100170000130D90059202030F700F70BBD28C028E6
:1001800000004030D800D90159200130D700242088
:10019000560CF700F70CF70C1F30F70577080139FC
:1001A000D7004430D8005708D9005920560CF70022
:1001B000F70C3F30F70577080139D7004530D800F4
:1001C0005708D90059200310560C0139D700463082
:1001D000D8005708D900592056080139D7004730B0
:1001E000D8005708D90059204030D8000130D90034
:1001F00059202030F700F70BFB28FE280000403084
:10020000D800D90159200130D700242008000F3030
:10021000D70024204030D800D90159204130D800DF
:10022000D90159204230D800D90159204430D80092
:10023000D90159204530D800D90159204630D8007D
:100240000130D90059204730D8000130D900592059
:100250004030D8000130D90059202030F700F70B8A
:100260002F29322900004030D800D901592005300B
:10027000D70024204130D800D90159204230D8007D
:10028000D90159204430D800D90159204530D8002F
:10029000D90159204630D8000130D90059204730C3
:1002A000D8000130D90059204030D8000130D900A1
:1002B00059202030F700F70B5B295E290000403001
:1002C000D800D90159200130D70024203230D6007F
:1002D00078200130D70024202830D6007820013043
:1002E000D70024200830D60078200130D700242001
:1002F0000130D60078200130D70024200630D60007
:1003000078200130D70024200F30D600782001302B
:10031000D70024208A110A12CC2A330B93290F30DC
:10032000D600782096290C30D60078208A110A123F
:10033000CE2AB5010130B6000230B7000330B80054
:100340000430B9000530BA000630BB000730BC00ED
:100350000830BD000930BE000A30BF000B30C000BD
:100360000C30C1000D30C2000E30C3000F30C4008D
:100370004030C5004130C6004230C7004330C8009D
:100380004430C9004530CA004630CB004730CC006D
:100390004830CD004930CE004A30CF004B30D0003D
:1003A0004C30D1004D30D2004E30D3004F30D4000D
:1003B00001303402F700770ED600F030D605013058
:1003C00033025607353E8400831300088038D50079
:1003D0005508D60078200800B70137083507F8001F
:1003E0003608FA000318FA0A7808840083137A188A
:1003F0008317800803199D2A37083507F800360847
:10040000FA000318FA0A7808840083137A1883170D
:100410000008B8003808B9004130D8000130D900D0
:1004200059204230D800D90159204030D800D90194
:100430005920F701B91B771477080139BA00443005
:10044000D8003A08D9005920390EF700F70CF70CFC
:100450000330F70577080139BA004530D8003A086B
:10046000D9005920390EF700F70C0730F705770847
:100470000139BA004630D8003A08D9005920390E5F
:10048000F7000F30F70577080139BA004730D80078
:100490003A08D90059204030D8000130D9005920FD
:1004A0002030F700F70B522A552A00004030D800C0
:1004B000D90159200130D7002420390CF700F70C5E
:1004C000F70C1F30F70577080139BA004430D8001F
:1004D0003A08D9005920390CF700F70C3F30F705DE
:1004E00077080139BA004530D8003A08D9005920B8
:1004F0000310390C0139BA004630D8003A08D90047
:10050000592039080139BA004730D8003A08D900D3
:1005100059204030D8000130D90059202030F70050
:10052000F70B902A932A00004030D800D9015920B7
:100530000130D7002420B70AED29080003081F392D
:100540008300831603178711193003139900A6300F
:100550009800903083129800A201A301FF30A400FC
:10056000831603170908C039890003131F129F124D
:1005700000300317880083128701880189018313E3
:100580000313A001A10183168C16C03083128B04C3
:100590006430D70024200729B3018D290230B3002D
:1005A0000130B4009921F8010E30F70025308400A5
:1005B0008313780804208000F80A840AF70BD92AEC
:1005C000B6012530B500EC210430B3000230B40090
:1005D0009921F8010A30F700253084008313780848
:1005E00016208000F80A840AF70BEF2AB60125309E
:1005F000B500EC2124142408831687008312071801
:10060000092B31300C1E022B9900C830D700242052
:100610003A2BA41424088316870083128718182BFA
:1006200032300C1E112B9900C830D70024203A2BF1
:10063000241524088316870083120719272B3330CB
:100640000C1E202B9900C830D70024203A2BA4156B
:1006500024088316870083128719362B34300C1E2A
:100660002F2B9900C830D70024203A2B30300C1E95
:08067000372B9900FA2A630000
:04400E00E12CFF3F63
:00000001FF
;PIC16F887
;CRC=C843  CREATED="20-Jun-23 16:21"
